{
  "contractName": "ERC721TD",
  "abi": [
    {
      "inputs": [],
      "stateMutability": "nonpayable",
      "type": "constructor"
    },
    {
      "anonymous": false,
      "inputs": [
        {
          "indexed": true,
          "internalType": "address",
          "name": "owner",
          "type": "address"
        },
        {
          "indexed": true,
          "internalType": "address",
          "name": "approved",
          "type": "address"
        },
        {
          "indexed": true,
          "internalType": "uint256",
          "name": "tokenId",
          "type": "uint256"
        }
      ],
      "name": "Approval",
      "type": "event"
    },
    {
      "anonymous": false,
      "inputs": [
        {
          "indexed": true,
          "internalType": "address",
          "name": "owner",
          "type": "address"
        },
        {
          "indexed": true,
          "internalType": "address",
          "name": "operator",
          "type": "address"
        },
        {
          "indexed": false,
          "internalType": "bool",
          "name": "approved",
          "type": "bool"
        }
      ],
      "name": "ApprovalForAll",
      "type": "event"
    },
    {
      "anonymous": false,
      "inputs": [
        {
          "indexed": true,
          "internalType": "address",
          "name": "from",
          "type": "address"
        },
        {
          "indexed": true,
          "internalType": "address",
          "name": "to",
          "type": "address"
        },
        {
          "indexed": true,
          "internalType": "uint256",
          "name": "tokenId",
          "type": "uint256"
        }
      ],
      "name": "Transfer",
      "type": "event"
    },
    {
      "inputs": [
        {
          "internalType": "address",
          "name": "to",
          "type": "address"
        },
        {
          "internalType": "uint256",
          "name": "tokenId",
          "type": "uint256"
        }
      ],
      "name": "approve",
      "outputs": [],
      "stateMutability": "nonpayable",
      "type": "function"
    },
    {
      "inputs": [
        {
          "internalType": "address",
          "name": "owner",
          "type": "address"
        }
      ],
      "name": "balanceOf",
      "outputs": [
        {
          "internalType": "uint256",
          "name": "",
          "type": "uint256"
        }
      ],
      "stateMutability": "view",
      "type": "function",
      "constant": true
    },
    {
      "inputs": [],
      "name": "baseURI",
      "outputs": [
        {
          "internalType": "string",
          "name": "",
          "type": "string"
        }
      ],
      "stateMutability": "view",
      "type": "function",
      "constant": true
    },
    {
      "inputs": [
        {
          "internalType": "address",
          "name": "",
          "type": "address"
        }
      ],
      "name": "breederList",
      "outputs": [
        {
          "internalType": "bool",
          "name": "",
          "type": "bool"
        }
      ],
      "stateMutability": "view",
      "type": "function",
      "constant": true
    },
    {
      "inputs": [
        {
          "internalType": "address",
          "name": "",
          "type": "address"
        }
      ],
      "name": "breederlist",
      "outputs": [
        {
          "internalType": "bool",
          "name": "",
          "type": "bool"
        }
      ],
      "stateMutability": "view",
      "type": "function",
      "constant": true
    },
    {
      "inputs": [
        {
          "internalType": "uint256",
          "name": "tokenId",
          "type": "uint256"
        }
      ],
      "name": "getApproved",
      "outputs": [
        {
          "internalType": "address",
          "name": "",
          "type": "address"
        }
      ],
      "stateMutability": "view",
      "type": "function",
      "constant": true
    },
    {
      "inputs": [
        {
          "internalType": "uint256",
          "name": "",
          "type": "uint256"
        }
      ],
      "name": "idAlive",
      "outputs": [
        {
          "internalType": "bool",
          "name": "",
          "type": "bool"
        }
      ],
      "stateMutability": "view",
      "type": "function",
      "constant": true
    },
    {
      "inputs": [
        {
          "internalType": "uint256",
          "name": "",
          "type": "uint256"
        }
      ],
      "name": "idAuthorizedBreeder",
      "outputs": [
        {
          "internalType": "address",
          "name": "",
          "type": "address"
        }
      ],
      "stateMutability": "view",
      "type": "function",
      "constant": true
    },
    {
      "inputs": [
        {
          "internalType": "uint256",
          "name": "",
          "type": "uint256"
        }
      ],
      "name": "idForSale",
      "outputs": [
        {
          "internalType": "bool",
          "name": "",
          "type": "bool"
        }
      ],
      "stateMutability": "view",
      "type": "function",
      "constant": true
    },
    {
      "inputs": [
        {
          "internalType": "uint256",
          "name": "",
          "type": "uint256"
        }
      ],
      "name": "idLegs",
      "outputs": [
        {
          "internalType": "uint256",
          "name": "",
          "type": "uint256"
        }
      ],
      "stateMutability": "view",
      "type": "function",
      "constant": true
    },
    {
      "inputs": [
        {
          "internalType": "uint256",
          "name": "",
          "type": "uint256"
        }
      ],
      "name": "idName",
      "outputs": [
        {
          "internalType": "string",
          "name": "",
          "type": "string"
        }
      ],
      "stateMutability": "view",
      "type": "function",
      "constant": true
    },
    {
      "inputs": [
        {
          "internalType": "uint256",
          "name": "",
          "type": "uint256"
        }
      ],
      "name": "idParents",
      "outputs": [
        {
          "internalType": "uint256",
          "name": "idParents1",
          "type": "uint256"
        },
        {
          "internalType": "uint256",
          "name": "idParents2",
          "type": "uint256"
        }
      ],
      "stateMutability": "view",
      "type": "function",
      "constant": true
    },
    {
      "inputs": [
        {
          "internalType": "uint256",
          "name": "",
          "type": "uint256"
        }
      ],
      "name": "idPrice",
      "outputs": [
        {
          "internalType": "uint256",
          "name": "",
          "type": "uint256"
        }
      ],
      "stateMutability": "view",
      "type": "function",
      "constant": true
    },
    {
      "inputs": [
        {
          "internalType": "uint256",
          "name": "",
          "type": "uint256"
        }
      ],
      "name": "idReproduce",
      "outputs": [
        {
          "internalType": "bool",
          "name": "",
          "type": "bool"
        }
      ],
      "stateMutability": "view",
      "type": "function",
      "constant": true
    },
    {
      "inputs": [
        {
          "internalType": "uint256",
          "name": "",
          "type": "uint256"
        }
      ],
      "name": "idReproducePrice",
      "outputs": [
        {
          "internalType": "uint256",
          "name": "",
          "type": "uint256"
        }
      ],
      "stateMutability": "view",
      "type": "function",
      "constant": true
    },
    {
      "inputs": [
        {
          "internalType": "uint256",
          "name": "",
          "type": "uint256"
        }
      ],
      "name": "idSex",
      "outputs": [
        {
          "internalType": "uint256",
          "name": "",
          "type": "uint256"
        }
      ],
      "stateMutability": "view",
      "type": "function",
      "constant": true
    },
    {
      "inputs": [
        {
          "internalType": "uint256",
          "name": "",
          "type": "uint256"
        }
      ],
      "name": "idToOwner",
      "outputs": [
        {
          "internalType": "address",
          "name": "",
          "type": "address"
        }
      ],
      "stateMutability": "view",
      "type": "function",
      "constant": true
    },
    {
      "inputs": [
        {
          "internalType": "uint256",
          "name": "",
          "type": "uint256"
        }
      ],
      "name": "idWings",
      "outputs": [
        {
          "internalType": "bool",
          "name": "",
          "type": "bool"
        }
      ],
      "stateMutability": "view",
      "type": "function",
      "constant": true
    },
    {
      "inputs": [
        {
          "internalType": "address",
          "name": "owner",
          "type": "address"
        },
        {
          "internalType": "address",
          "name": "operator",
          "type": "address"
        }
      ],
      "name": "isApprovedForAll",
      "outputs": [
        {
          "internalType": "bool",
          "name": "",
          "type": "bool"
        }
      ],
      "stateMutability": "view",
      "type": "function",
      "constant": true
    },
    {
      "inputs": [],
      "name": "name",
      "outputs": [
        {
          "internalType": "string",
          "name": "",
          "type": "string"
        }
      ],
      "stateMutability": "view",
      "type": "function",
      "constant": true
    },
    {
      "inputs": [],
      "name": "owner",
      "outputs": [
        {
          "internalType": "address",
          "name": "",
          "type": "address"
        }
      ],
      "stateMutability": "view",
      "type": "function",
      "constant": true
    },
    {
      "inputs": [
        {
          "internalType": "uint256",
          "name": "tokenId",
          "type": "uint256"
        }
      ],
      "name": "ownerOf",
      "outputs": [
        {
          "internalType": "address",
          "name": "",
          "type": "address"
        }
      ],
      "stateMutability": "view",
      "type": "function",
      "constant": true
    },
    {
      "inputs": [
        {
          "internalType": "address",
          "name": "from",
          "type": "address"
        },
        {
          "internalType": "address",
          "name": "to",
          "type": "address"
        },
        {
          "internalType": "uint256",
          "name": "tokenId",
          "type": "uint256"
        }
      ],
      "name": "safeTransferFrom",
      "outputs": [],
      "stateMutability": "nonpayable",
      "type": "function"
    },
    {
      "inputs": [
        {
          "internalType": "address",
          "name": "from",
          "type": "address"
        },
        {
          "internalType": "address",
          "name": "to",
          "type": "address"
        },
        {
          "internalType": "uint256",
          "name": "tokenId",
          "type": "uint256"
        },
        {
          "internalType": "bytes",
          "name": "_data",
          "type": "bytes"
        }
      ],
      "name": "safeTransferFrom",
      "outputs": [],
      "stateMutability": "nonpayable",
      "type": "function"
    },
    {
      "inputs": [
        {
          "internalType": "address",
          "name": "operator",
          "type": "address"
        },
        {
          "internalType": "bool",
          "name": "approved",
          "type": "bool"
        }
      ],
      "name": "setApprovalForAll",
      "outputs": [],
      "stateMutability": "nonpayable",
      "type": "function"
    },
    {
      "inputs": [
        {
          "internalType": "bytes4",
          "name": "interfaceId",
          "type": "bytes4"
        }
      ],
      "name": "supportsInterface",
      "outputs": [
        {
          "internalType": "bool",
          "name": "",
          "type": "bool"
        }
      ],
      "stateMutability": "view",
      "type": "function",
      "constant": true
    },
    {
      "inputs": [],
      "name": "symbol",
      "outputs": [
        {
          "internalType": "string",
          "name": "",
          "type": "string"
        }
      ],
      "stateMutability": "view",
      "type": "function",
      "constant": true
    },
    {
      "inputs": [
        {
          "internalType": "uint256",
          "name": "index",
          "type": "uint256"
        }
      ],
      "name": "tokenByIndex",
      "outputs": [
        {
          "internalType": "uint256",
          "name": "",
          "type": "uint256"
        }
      ],
      "stateMutability": "view",
      "type": "function",
      "constant": true
    },
    {
      "inputs": [
        {
          "internalType": "uint256",
          "name": "tokenId",
          "type": "uint256"
        }
      ],
      "name": "tokenURI",
      "outputs": [
        {
          "internalType": "string",
          "name": "",
          "type": "string"
        }
      ],
      "stateMutability": "view",
      "type": "function",
      "constant": true
    },
    {
      "inputs": [],
      "name": "totalSupply",
      "outputs": [
        {
          "internalType": "uint256",
          "name": "",
          "type": "uint256"
        }
      ],
      "stateMutability": "view",
      "type": "function",
      "constant": true
    },
    {
      "inputs": [
        {
          "internalType": "address",
          "name": "from",
          "type": "address"
        },
        {
          "internalType": "address",
          "name": "to",
          "type": "address"
        },
        {
          "internalType": "uint256",
          "name": "tokenId",
          "type": "uint256"
        }
      ],
      "name": "transferFrom",
      "outputs": [],
      "stateMutability": "nonpayable",
      "type": "function"
    },
    {
      "inputs": [
        {
          "internalType": "address",
          "name": "to",
          "type": "address"
        }
      ],
      "name": "safeMint",
      "outputs": [],
      "stateMutability": "nonpayable",
      "type": "function"
    },
    {
      "inputs": [
        {
          "internalType": "address",
          "name": "account",
          "type": "address"
        }
      ],
      "name": "isBreeder",
      "outputs": [
        {
          "internalType": "bool",
          "name": "",
          "type": "bool"
        }
      ],
      "stateMutability": "nonpayable",
      "type": "function"
    },
    {
      "inputs": [],
      "name": "registrationPrice",
      "outputs": [
        {
          "internalType": "uint256",
          "name": "",
          "type": "uint256"
        }
      ],
      "stateMutability": "nonpayable",
      "type": "function"
    },
    {
      "inputs": [],
      "name": "registerMeAsBreeder",
      "outputs": [],
      "stateMutability": "payable",
      "type": "function",
      "payable": true
    },
    {
      "inputs": [
        {
          "internalType": "uint256",
          "name": "sex",
          "type": "uint256"
        },
        {
          "internalType": "uint256",
          "name": "legs",
          "type": "uint256"
        },
        {
          "internalType": "bool",
          "name": "wings",
          "type": "bool"
        },
        {
          "internalType": "string",
          "name": "name",
          "type": "string"
        }
      ],
      "name": "declareAnimal",
      "outputs": [
        {
          "internalType": "uint256",
          "name": "",
          "type": "uint256"
        }
      ],
      "stateMutability": "nonpayable",
      "type": "function"
    },
    {
      "inputs": [
        {
          "internalType": "uint256",
          "name": "animalNumber",
          "type": "uint256"
        }
      ],
      "name": "getAnimalCharacteristics",
      "outputs": [
        {
          "internalType": "string",
          "name": "_name",
          "type": "string"
        },
        {
          "internalType": "bool",
          "name": "_wings",
          "type": "bool"
        },
        {
          "internalType": "uint256",
          "name": "_legs",
          "type": "uint256"
        },
        {
          "internalType": "uint256",
          "name": "_sex",
          "type": "uint256"
        }
      ],
      "stateMutability": "nonpayable",
      "type": "function"
    },
    {
      "inputs": [
        {
          "internalType": "uint256",
          "name": "animalNumber",
          "type": "uint256"
        }
      ],
      "name": "declareDeadAnimal",
      "outputs": [],
      "stateMutability": "nonpayable",
      "type": "function"
    },
    {
      "inputs": [
        {
          "internalType": "address",
          "name": "owner",
          "type": "address"
        },
        {
          "internalType": "uint256",
          "name": "index",
          "type": "uint256"
        }
      ],
      "name": "tokenOfOwnerByIndex",
      "outputs": [
        {
          "internalType": "uint256",
          "name": "",
          "type": "uint256"
        }
      ],
      "stateMutability": "view",
      "type": "function",
      "constant": true
    },
    {
      "inputs": [
        {
          "internalType": "uint256",
          "name": "animalNumber",
          "type": "uint256"
        }
      ],
      "name": "isAnimalForSale",
      "outputs": [
        {
          "internalType": "bool",
          "name": "",
          "type": "bool"
        }
      ],
      "stateMutability": "view",
      "type": "function",
      "constant": true
    },
    {
      "inputs": [
        {
          "internalType": "uint256",
          "name": "animalNumber",
          "type": "uint256"
        }
      ],
      "name": "animalPrice",
      "outputs": [
        {
          "internalType": "uint256",
          "name": "",
          "type": "uint256"
        }
      ],
      "stateMutability": "view",
      "type": "function",
      "constant": true
    },
    {
      "inputs": [
        {
          "internalType": "uint256",
          "name": "animalNumber",
          "type": "uint256"
        }
      ],
      "name": "buyAnimal",
      "outputs": [],
      "stateMutability": "payable",
      "type": "function",
      "payable": true
    },
    {
      "inputs": [
        {
          "internalType": "uint256",
          "name": "animalNumber",
          "type": "uint256"
        },
        {
          "internalType": "uint256",
          "name": "price",
          "type": "uint256"
        }
      ],
      "name": "offerForSale",
      "outputs": [],
      "stateMutability": "nonpayable",
      "type": "function"
    },
    {
      "inputs": [
        {
          "internalType": "uint256",
          "name": "sex",
          "type": "uint256"
        },
        {
          "internalType": "uint256",
          "name": "legs",
          "type": "uint256"
        },
        {
          "internalType": "bool",
          "name": "wings",
          "type": "bool"
        },
        {
          "internalType": "string",
          "name": "name",
          "type": "string"
        },
        {
          "internalType": "uint256",
          "name": "parent1",
          "type": "uint256"
        },
        {
          "internalType": "uint256",
          "name": "parent2",
          "type": "uint256"
        }
      ],
      "name": "declareAnimalWithParents",
      "outputs": [
        {
          "internalType": "uint256",
          "name": "",
          "type": "uint256"
        }
      ],
      "stateMutability": "nonpayable",
      "type": "function"
    },
    {
      "inputs": [
        {
          "internalType": "uint256",
          "name": "animalNumber",
          "type": "uint256"
        }
      ],
      "name": "getParents",
      "outputs": [
        {
          "internalType": "uint256",
          "name": "",
          "type": "uint256"
        },
        {
          "internalType": "uint256",
          "name": "",
          "type": "uint256"
        }
      ],
      "stateMutability": "nonpayable",
      "type": "function"
    },
    {
      "inputs": [
        {
          "internalType": "uint256",
          "name": "animalNumber",
          "type": "uint256"
        }
      ],
      "name": "canReproduce",
      "outputs": [
        {
          "internalType": "bool",
          "name": "",
          "type": "bool"
        }
      ],
      "stateMutability": "nonpayable",
      "type": "function"
    },
    {
      "inputs": [
        {
          "internalType": "uint256",
          "name": "animalNumber",
          "type": "uint256"
        }
      ],
      "name": "reproductionPrice",
      "outputs": [
        {
          "internalType": "uint256",
          "name": "",
          "type": "uint256"
        }
      ],
      "stateMutability": "view",
      "type": "function",
      "constant": true
    },
    {
      "inputs": [
        {
          "internalType": "uint256",
          "name": "animalNumber",
          "type": "uint256"
        },
        {
          "internalType": "uint256",
          "name": "priceOfReproduction",
          "type": "uint256"
        }
      ],
      "name": "offerForReproduction",
      "outputs": [
        {
          "internalType": "uint256",
          "name": "",
          "type": "uint256"
        }
      ],
      "stateMutability": "nonpayable",
      "type": "function"
    },
    {
      "inputs": [
        {
          "internalType": "uint256",
          "name": "animalNumber",
          "type": "uint256"
        }
      ],
      "name": "authorizedBreederToReproduce",
      "outputs": [
        {
          "internalType": "address",
          "name": "",
          "type": "address"
        }
      ],
      "stateMutability": "nonpayable",
      "type": "function"
    },
    {
      "inputs": [
        {
          "internalType": "uint256",
          "name": "animalNumber",
          "type": "uint256"
        }
      ],
      "name": "payForReproduction",
      "outputs": [],
      "stateMutability": "payable",
      "type": "function",
      "payable": true
    }
  ],
  "bytecode": "0x60806040523480156200001157600080fd5b506040518060400160405280600581526020017f4b726b6d750000000000000000000000000000000000000000000000000000008152506040518060400160405280600381526020017f4b524b0000000000000000000000000000000000000000000000000000000000815250620000966301ffc9a760e01b620007e860201b60201c565b8160069080519060200190620000ae92919062000d72565b508060079080519060200190620000c792919062000d72565b50620000e06380ac58cd60e01b620007e860201b60201c565b620000f8635b5e139f60e01b620007e860201b60201c565b6200011063780e9d6360e01b620007e860201b60201c565b505033600a60006101000a81548173ffffffffffffffffffffffffffffffffffffffff021916908373ffffffffffffffffffffffffffffffffffffffff1602179055506200016a600b620008f160201b620036fa1760201c565b600062000183600b6200090760201b620036ec1760201c565b90506200019c600b620008f160201b620036fa1760201c565b620001c7730e4f5184e6f87b5f959aee5a09a2797e8b1b20e5826200091560201b620037101760201c565b600160106000730e4f5184e6f87b5f959aee5a09a2797e8b1b20e573ffffffffffffffffffffffffffffffffffffffff1673ffffffffffffffffffffffffffffffffffffffff16815260200190815260200160002060006101000a81548160ff0219169083151502179055506040518060400160405280600f81526020017f6a475643455933746e5151782d7a5f0000000000000000000000000000000000815250600c600083815260200190815260200160002090805190602001906200029192919062000d72565b506003600d6000838152602001908152602001600020819055506001600e6000838152602001908152602001600020819055506001600f600083815260200190815260200160002060006101000a81548160ff02191690831515021790555060016018600083815260200190815260200160002060006101000a81548160ff021916908315150217905550730e4f5184e6f87b5f959aee5a09a2797e8b1b20e56011600083815260200190815260200160002060006101000a81548173ffffffffffffffffffffffffffffffffffffffff021916908373ffffffffffffffffffffffffffffffffffffffff16021790555060006012600083815260200190815260200160002060006101000a81548160ff0219169083151502179055506000601360008381526020019081526020016000208190555060006014600083815260200190815260200160002060006101000a81548160ff0219169083151502179055506000601560008381526020019081526020016000208190555062000423600b6200090760201b620036ec1760201c565b90506200043c33826200091560201b620037101760201c565b60016012600083815260200190815260200160002060006101000a81548160ff021916908315150217905550655af3107a40006013600083815260200190815260200160002081905550336011600083815260200190815260200160002060006101000a81548173ffffffffffffffffffffffffffffffffffffffff021916908373ffffffffffffffffffffffffffffffffffffffff16021790555060016014600083815260200190815260200160002060006101000a81548160ff021916908315150217905550655af3107a400060156000838152602001908152602001600020819055506001601060003373ffffffffffffffffffffffffffffffffffffffff1673ffffffffffffffffffffffffffffffffffffffff16815260200190815260200160002060006101000a81548160ff02191690831515021790555062000591600b620008f160201b620036fa1760201c565b620005a8600b6200090760201b620036ec1760201c565b9050620005c133826200091560201b620037101760201c565b60016012600083815260200190815260200160002060006101000a81548160ff021916908315150217905550655af3107a40006013600083815260200190815260200160002081905550336011600083815260200190815260200160002060006101000a81548173ffffffffffffffffffffffffffffffffffffffff021916908373ffffffffffffffffffffffffffffffffffffffff16021790555060006014600083815260200190815260200160002060006101000a81548160ff02191690831515021790555060006015600083815260200190815260200160002081905550620006b9600b620008f160201b620036fa1760201c565b620006d0600b6200090760201b620036ec1760201c565b9050620006e933826200091560201b620037101760201c565b60016012600083815260200190815260200160002060006101000a81548160ff021916908315150217905550655af3107a40006013600083815260200190815260200160002081905550336011600083815260200190815260200160002060006101000a81548173ffffffffffffffffffffffffffffffffffffffff021916908373ffffffffffffffffffffffffffffffffffffffff16021790555060006014600083815260200190815260200160002060006101000a81548160ff02191690831515021790555060006015600083815260200190815260200160002081905550620007e1600b620008f160201b620036fa1760201c565b5062000e21565b63ffffffff60e01b817bffffffffffffffffffffffffffffffffffffffffffffffffffffffff1916141562000885576040517f08c379a000000000000000000000000000000000000000000000000000000000815260040180806020018281038252601c8152602001807f4552433136353a20696e76616c696420696e746572666163652069640000000081525060200191505060405180910390fd5b6001600080837bffffffffffffffffffffffffffffffffffffffffffffffffffffffff19167bffffffffffffffffffffffffffffffffffffffffffffffffffffffff1916815260200190815260200160002060006101000a81548160ff02191690831515021790555050565b6001816000016000828254019250508190555050565b600081600001549050919050565b600073ffffffffffffffffffffffffffffffffffffffff168273ffffffffffffffffffffffffffffffffffffffff161415620009b9576040517f08c379a00000000000000000000000000000000000000000000000000000000081526004018080602001828103825260208152602001807f4552433732313a206d696e7420746f20746865207a65726f206164647265737381525060200191505060405180910390fd5b620009ca8162000b2960201b60201c565b1562000a3e576040517f08c379a000000000000000000000000000000000000000000000000000000000815260040180806020018281038252601c8152602001807f4552433732313a20746f6b656e20616c7265616479206d696e7465640000000081525060200191505060405180910390fd5b62000a526000838362000b4d60201b60201c565b62000aaa81600160008573ffffffffffffffffffffffffffffffffffffffff1673ffffffffffffffffffffffffffffffffffffffff16815260200190815260200160002062000b5260201b62003c8d1790919060201c565b5062000ac88183600262000b7460201b62003ca7179092919060201c565b50808273ffffffffffffffffffffffffffffffffffffffff16600073ffffffffffffffffffffffffffffffffffffffff167fddf252ad1be2c89b69c2b068fc378daa952ba7f163c4a11628f55a4df523b3ef60405160405180910390a45050565b600062000b4682600262000bb160201b62003c431790919060201c565b9050919050565b505050565b600062000b6c836000018360001b62000bd360201b60201c565b905092915050565b600062000ba8846000018460001b8473ffffffffffffffffffffffffffffffffffffffff1660001b62000c4d60201b60201c565b90509392505050565b600062000bcb836000018360001b62000d2c60201b60201c565b905092915050565b600062000be7838362000d4f60201b60201c565b62000c4257826000018290806001815401808255809150506001900390600052602060002001600090919091909150558260000180549050836001016000848152602001908152602001600020819055506001905062000c47565b600090505b92915050565b600080846001016000858152602001908152602001600020549050600081141562000cf65784600001604051806040016040528086815260200185815250908060018154018082558091505060019003906000526020600020906002020160009091909190915060008201518160000155602082015181600101555050846000018054905085600101600086815260200190815260200160002081905550600191505062000d25565b8285600001600183038154811062000d0a57fe5b90600052602060002090600202016001018190555060009150505b9392505050565b600080836001016000848152602001908152602001600020541415905092915050565b600080836001016000848152602001908152602001600020541415905092915050565b828054600181600116156101000203166002900490600052602060002090601f016020900481019282601f1062000db557805160ff191683800117855562000de6565b8280016001018555821562000de6579182015b8281111562000de557825182559160200191906001019062000dc8565b5b50905062000df5919062000df9565b5090565b62000e1e91905b8082111562000e1a57600081600090555060010162000e00565b5090565b90565b614bcc8062000e316000396000f3fe6080604052600436106102c95760003560e01c80634abda8c811610175578063a4d5c03d116100dc578063c5f51f7311610095578063d05676d61161006f578063d05676d614611603578063e985e9c51461167e578063ec89777214611707578063ff36ed9814611742576102c9565b8063c5f51f7314611493578063c7b9cb0b146114e6578063c87b56dd1461154f576102c9565b8063a4d5c03d146110e3578063b6d5036b14611132578063b75e075014611185578063b77894dd14611252578063b88d4fde14611306578063bfc206ed14611418576102c9565b80637e5fa73d1161012e5780637e5fa73d14610e295780638da5cb5b14610e78578063929c13e314610ecf57806395d89b4114610f9d578063a0c32c8f1461102d578063a22cb46514611086576102c9565b80634abda8c814610bd25780634f6ccce714610c255780636352211e14610c745780636c0360eb14610cef57806370a0823114610d7f57806377386df314610de4576102c9565b8063242a0087116102345780633573dbd1116101ed57806341d30bae116101c757806341d30bae14610aa45780634283ae0c14610aae57806342842e0e14610b0157806348228c0d14610b7c576102c9565b80633573dbd1146109b55780633dc1d50914610a0457806340d097c314610a53576102c9565b8063242a00871461071d57806325e842031461077357806327aa8f31146107c25780632a4672b21461083d5780632f745c591461088c57806332b0f376146108fb576102c9565b806316b1d96e1161028657806316b1d96e1461056257806318160ddd146105b55780631a14e94a146105e05780631a65abf21461060e578063216586581461067757806323b872dd146106a2576102c9565b806301ffc9a7146102ce57806306fdde0314610340578063081812fc146103d0578063095ea7b31461044b57806309bac3c4146104a65780630d45f98c146104f9575b600080fd5b3480156102da57600080fd5b50610326600480360360208110156102f157600080fd5b8101908080357bffffffffffffffffffffffffffffffffffffffffffffffffffffffff19169060200190929190505050611770565b604051808215151515815260200191505060405180910390f35b34801561034c57600080fd5b506103556117d7565b6040518080602001828103825283818151815260200191508051906020019080838360005b8381101561039557808201518184015260208101905061037a565b50505050905090810190601f1680156103c25780820380516001836020036101000a031916815260200191505b509250505060405180910390f35b3480156103dc57600080fd5b50610409600480360360208110156103f357600080fd5b8101908080359060200190929190505050611879565b604051808273ffffffffffffffffffffffffffffffffffffffff1673ffffffffffffffffffffffffffffffffffffffff16815260200191505060405180910390f35b34801561045757600080fd5b506104a46004803603604081101561046e57600080fd5b81019080803573ffffffffffffffffffffffffffffffffffffffff16906020019092919080359060200190929190505050611914565b005b3480156104b257600080fd5b506104df600480360360208110156104c957600080fd5b8101908080359060200190929190505050611a58565b604051808215151515815260200191505060405180910390f35b34801561050557600080fd5b506105486004803603602081101561051c57600080fd5b81019080803573ffffffffffffffffffffffffffffffffffffffff169060200190929190505050611a78565b604051808215151515815260200191505060405180910390f35b34801561056e57600080fd5b5061059b6004803603602081101561058557600080fd5b8101908080359060200190929190505050611a98565b604051808215151515815260200191505060405180910390f35b3480156105c157600080fd5b506105ca611ab8565b6040518082815260200191505060405180910390f35b61060c600480360360208110156105f657600080fd5b8101908080359060200190929190505050611ac9565b005b34801561061a57600080fd5b5061065d6004803603602081101561063157600080fd5b81019080803573ffffffffffffffffffffffffffffffffffffffff169060200190929190505050611c26565b604051808215151515815260200191505060405180910390f35b34801561068357600080fd5b5061068c611c46565b6040518082815260200191505060405180910390f35b3480156106ae57600080fd5b5061071b600480360360608110156106c557600080fd5b81019080803573ffffffffffffffffffffffffffffffffffffffff169060200190929190803573ffffffffffffffffffffffffffffffffffffffff16906020019092919080359060200190929190505050611c4e565b005b34801561072957600080fd5b506107566004803603602081101561074057600080fd5b8101908080359060200190929190505050611cc4565b604051808381526020018281526020019250505060405180910390f35b34801561077f57600080fd5b506107ac6004803603602081101561079657600080fd5b8101908080359060200190929190505050611cfe565b6040518082815260200191505060405180910390f35b3480156107ce57600080fd5b506107fb600480360360208110156107e557600080fd5b8101908080359060200190929190505050611d16565b604051808273ffffffffffffffffffffffffffffffffffffffff1673ffffffffffffffffffffffffffffffffffffffff16815260200191505060405180910390f35b34801561084957600080fd5b506108766004803603602081101561086057600080fd5b8101908080359060200190929190505050611d53565b6040518082815260200191505060405180910390f35b34801561089857600080fd5b506108e5600480360360408110156108af57600080fd5b81019080803573ffffffffffffffffffffffffffffffffffffffff16906020019092919080359060200190929190505050611d70565b6040518082815260200191505060405180910390f35b34801561090757600080fd5b5061099f6004803603608081101561091e57600080fd5b8101908080359060200190929190803590602001909291908035151590602001909291908035906020019064010000000081111561095b57600080fd5b82018360208201111561096d57600080fd5b8035906020019184600183028401116401000000008311171561098f57600080fd5b9091929391929390505050611e02565b6040518082815260200191505060405180910390f35b3480156109c157600080fd5b506109ee600480360360208110156109d857600080fd5b8101908080359060200190929190505050611f73565b6040518082815260200191505060405180910390f35b348015610a1057600080fd5b50610a3d60048036036020811015610a2757600080fd5b8101908080359060200190929190505050611f90565b6040518082815260200191505060405180910390f35b348015610a5f57600080fd5b50610aa260048036036020811015610a7657600080fd5b81019080803573ffffffffffffffffffffffffffffffffffffffff169060200190929190505050611fa8565b005b610aac611fce565b005b348015610aba57600080fd5b50610ae760048036036020811015610ad157600080fd5b810190808035906020019092919050505061207f565b604051808215151515815260200191505060405180910390f35b348015610b0d57600080fd5b50610b7a60048036036060811015610b2457600080fd5b81019080803573ffffffffffffffffffffffffffffffffffffffff169060200190929190803573ffffffffffffffffffffffffffffffffffffffff1690602001909291908035906020019092919050505061209f565b005b348015610b8857600080fd5b50610bb560048036036020811015610b9f57600080fd5b81019080803590602001909291905050506120bf565b604051808381526020018281526020019250505060405180910390f35b348015610bde57600080fd5b50610c0b60048036036020811015610bf557600080fd5b81019080803590602001909291905050506120e3565b604051808215151515815260200191505060405180910390f35b348015610c3157600080fd5b50610c5e60048036036020811015610c4857600080fd5b810190808035906020019092919050505061210d565b6040518082815260200191505060405180910390f35b348015610c8057600080fd5b50610cad60048036036020811015610c9757600080fd5b8101908080359060200190929190505050612130565b604051808273ffffffffffffffffffffffffffffffffffffffff1673ffffffffffffffffffffffffffffffffffffffff16815260200191505060405180910390f35b348015610cfb57600080fd5b50610d04612167565b6040518080602001828103825283818151815260200191508051906020019080838360005b83811015610d44578082015181840152602081019050610d29565b50505050905090810190601f168015610d715780820380516001836020036101000a031916815260200191505b509250505060405180910390f35b348015610d8b57600080fd5b50610dce60048036036020811015610da257600080fd5b81019080803573ffffffffffffffffffffffffffffffffffffffff169060200190929190505050612209565b6040518082815260200191505060405180910390f35b348015610df057600080fd5b50610e2760048036036040811015610e0757600080fd5b8101908080359060200190929190803590602001909291905050506122de565b005b348015610e3557600080fd5b50610e6260048036036020811015610e4c57600080fd5b81019080803590602001909291905050506123dd565b6040518082815260200191505060405180910390f35b348015610e8457600080fd5b50610e8d6123f5565b604051808273ffffffffffffffffffffffffffffffffffffffff1673ffffffffffffffffffffffffffffffffffffffff16815260200191505060405180910390f35b348015610edb57600080fd5b50610f87600480360360c0811015610ef257600080fd5b81019080803590602001909291908035906020019092919080351515906020019092919080359060200190640100000000811115610f2f57600080fd5b820183602082011115610f4157600080fd5b80359060200191846001830284011164010000000083111715610f6357600080fd5b9091929391929390803590602001909291908035906020019092919050505061241b565b6040518082815260200191505060405180910390f35b348015610fa957600080fd5b50610fb2612683565b6040518080602001828103825283818151815260200191508051906020019080838360005b83811015610ff2578082015181840152602081019050610fd7565b50505050905090810190601f16801561101f5780820380516001836020036101000a031916815260200191505b509250505060405180910390f35b34801561103957600080fd5b506110706004803603604081101561105057600080fd5b810190808035906020019092919080359060200190929190505050612725565b6040518082815260200191505060405180910390f35b34801561109257600080fd5b506110e1600480360360408110156110a957600080fd5b81019080803573ffffffffffffffffffffffffffffffffffffffff1690602001909291908035151590602001909291905050506127b4565b005b3480156110ef57600080fd5b5061111c6004803603602081101561110657600080fd5b810190808035906020019092919050505061296c565b6040518082815260200191505060405180910390f35b34801561113e57600080fd5b5061116b6004803603602081101561115557600080fd5b8101908080359060200190929190505050612984565b604051808215151515815260200191505060405180910390f35b34801561119157600080fd5b506111be600480360360208110156111a857600080fd5b81019080803590602001909291905050506129a4565b604051808060200185151515158152602001848152602001838152602001828103825286818151815260200191508051906020019080838360005b838110156112145780820151818401526020810190506111f9565b50505050905090810190601f1680156112415780820380516001836020036101000a031916815260200191505b509550505050505060405180910390f35b34801561125e57600080fd5b5061128b6004803603602081101561127557600080fd5b8101908080359060200190929190505050612ab2565b6040518080602001828103825283818151815260200191508051906020019080838360005b838110156112cb5780820151818401526020810190506112b0565b50505050905090810190601f1680156112f85780820380516001836020036101000a031916815260200191505b509250505060405180910390f35b34801561131257600080fd5b506114166004803603608081101561132957600080fd5b81019080803573ffffffffffffffffffffffffffffffffffffffff169060200190929190803573ffffffffffffffffffffffffffffffffffffffff169060200190929190803590602001909291908035906020019064010000000081111561139057600080fd5b8201836020820111156113a257600080fd5b803590602001918460018302840111640100000000831117156113c457600080fd5b91908080601f016020809104026020016040519081016040528093929190818152602001838380828437600081840152601f19601f820116905080830192505050505050509192919290505050612b62565b005b34801561142457600080fd5b506114516004803603602081101561143b57600080fd5b8101908080359060200190929190505050612bda565b604051808273ffffffffffffffffffffffffffffffffffffffff1673ffffffffffffffffffffffffffffffffffffffff16815260200191505060405180910390f35b34801561149f57600080fd5b506114cc600480360360208110156114b657600080fd5b8101908080359060200190929190505050612c0d565b604051808215151515815260200191505060405180910390f35b3480156114f257600080fd5b506115356004803603602081101561150957600080fd5b81019080803573ffffffffffffffffffffffffffffffffffffffff169060200190929190505050612c37565b604051808215151515815260200191505060405180910390f35b34801561155b57600080fd5b506115886004803603602081101561157257600080fd5b8101908080359060200190929190505050612c8d565b6040518080602001828103825283818151815260200191508051906020019080838360005b838110156115c85780820151818401526020810190506115ad565b50505050905090810190601f1680156115f55780820380516001836020036101000a031916815260200191505b509250505060405180910390f35b34801561160f57600080fd5b5061163c6004803603602081101561162657600080fd5b8101908080359060200190929190505050612f5e565b604051808273ffffffffffffffffffffffffffffffffffffffff1673ffffffffffffffffffffffffffffffffffffffff16815260200191505060405180910390f35b34801561168a57600080fd5b506116ed600480360360408110156116a157600080fd5b81019080803573ffffffffffffffffffffffffffffffffffffffff169060200190929190803573ffffffffffffffffffffffffffffffffffffffff169060200190929190505050612f91565b604051808215151515815260200191505060405180910390f35b34801561171357600080fd5b506117406004803603602081101561172a57600080fd5b8101908080359060200190929190505050613025565b005b61176e6004803603602081101561175857600080fd5b81019080803590602001909291905050506131f2565b005b6000806000837bffffffffffffffffffffffffffffffffffffffffffffffffffffffff19167bffffffffffffffffffffffffffffffffffffffffffffffffffffffff1916815260200190815260200160002060009054906101000a900460ff169050919050565b606060068054600181600116156101000203166002900480601f01602080910402602001604051908101604052809291908181526020018280546001816001161561010002031660029004801561186f5780601f106118445761010080835404028352916020019161186f565b820191906000526020600020905b81548152906001019060200180831161185257829003601f168201915b5050505050905090565b600061188482613267565b6118d9576040517f08c379a000000000000000000000000000000000000000000000000000000000815260040180806020018281038252602c815260200180614a90602c913960400191505060405180910390fd5b6004600083815260200190815260200160002060009054906101000a900473ffffffffffffffffffffffffffffffffffffffff169050919050565b600061191f82612130565b90508073ffffffffffffffffffffffffffffffffffffffff168373ffffffffffffffffffffffffffffffffffffffff1614156119a6576040517f08c379a0000000000000000000000000000000000000000000000000000000008152600401808060200182810382526021815260200180614b146021913960400191505060405180910390fd5b8073ffffffffffffffffffffffffffffffffffffffff166119c5613284565b73ffffffffffffffffffffffffffffffffffffffff1614806119f457506119f3816119ee613284565b612f91565b5b611a49576040517f08c379a00000000000000000000000000000000000000000000000000000000081526004018080602001828103825260388152602001806149e36038913960400191505060405180910390fd5b611a53838361328c565b505050565b60146020528060005260406000206000915054906101000a900460ff1681565b60166020528060005260406000206000915054906101000a900460ff1681565b60186020528060005260406000206000915054906101000a900460ff1681565b6000611ac46002613345565b905090565b6012600082815260200190815260200160002060009054906101000a900460ff16611b5c576040517f08c379a000000000000000000000000000000000000000000000000000000000815260040180806020018281038252601a8152602001807f5468697320616e696d616c2063616e206e6f742062652062757900000000000081525060200191505060405180910390fd5b6013600082815260200190815260200160002054341015611be5576040517f08c379a00000000000000000000000000000000000000000000000000000000081526004018080602001828103825260158152602001807f6e6f7420656e6f75676874206d6f6e65792062726f000000000000000000000081525060200191505060405180910390fd5b611c236011600083815260200190815260200160002060009054906101000a900473ffffffffffffffffffffffffffffffffffffffff16338361335a565b50565b60106020528060005260406000206000915054906101000a900460ff1681565b600080905090565b611c5f611c59613284565b8261359d565b611cb4576040517f08c379a0000000000000000000000000000000000000000000000000000000008152600401808060200182810382526031815260200180614b356031913960400191505060405180910390fd5b611cbf83838361335a565b505050565b6000806019600084815260200190815260200160002060000154601960008581526020019081526020016000206001015491509150915091565b600e6020528060005260406000206000915090505481565b60006017600083815260200190815260200160002060009054906101000a900473ffffffffffffffffffffffffffffffffffffffff169050919050565b600060156000838152602001908152602001600020549050919050565b600080611d7c84612209565b1415611df0576040517f08c379a00000000000000000000000000000000000000000000000000000000081526004018080602001828103825260148152602001807f796f7520646f6e2774206861766520746f6b656e00000000000000000000000081525060200191505060405180910390fd5b611dfa8383613691565b905092915050565b600080611e0f600b6136ec565b9050611e1b600b6136fa565b8383600c60008481526020019081526020016000209190611e3d9291906147ab565b5085600d60008381526020019081526020016000208190555086600e60008381526020019081526020016000208190555084600f600083815260200190815260200160002060006101000a81548160ff02191690831515021790555060016018600083815260200190815260200160002060006101000a81548160ff021916908315150217905550336011600083815260200190815260200160002060006101000a81548173ffffffffffffffffffffffffffffffffffffffff021916908373ffffffffffffffffffffffffffffffffffffffff1602179055506000601560008381526020019081526020016000208190555060006014600083815260200190815260200160002060006101000a81548160ff021916908315150217905550611f663382613710565b8091505095945050505050565b600060136000838152602001908152602001600020549050919050565b60136020528060005260406000206000915090505481565b6000611fb4600b6136ec565b9050611fc0600b6136fa565b611fca8282613710565b5050565b601060003373ffffffffffffffffffffffffffffffffffffffff1673ffffffffffffffffffffffffffffffffffffffff16815260200190815260200160002060009054906101000a900460ff161561202557600080fd5b6001601060003373ffffffffffffffffffffffffffffffffffffffff1673ffffffffffffffffffffffffffffffffffffffff16815260200190815260200160002060006101000a81548160ff021916908315150217905550565b60126020528060005260406000206000915054906101000a900460ff1681565b6120ba83838360405180602001604052806000815250612b62565b505050565b60196020528060005260406000206000915090508060000154908060010154905082565b60006014600083815260200190815260200160002060009054906101000a900460ff169050919050565b60008061212483600261390490919063ffffffff16565b50905080915050919050565b600061216082604051806060016040528060298152602001614a456029913960026139339092919063ffffffff16565b9050919050565b606060098054600181600116156101000203166002900480601f0160208091040260200160405190810160405280929190818152602001828054600181600116156101000203166002900480156121ff5780601f106121d4576101008083540402835291602001916121ff565b820191906000526020600020905b8154815290600101906020018083116121e257829003601f168201915b5050505050905090565b60008073ffffffffffffffffffffffffffffffffffffffff168273ffffffffffffffffffffffffffffffffffffffff161415612290576040517f08c379a000000000000000000000000000000000000000000000000000000000815260040180806020018281038252602a815260200180614a1b602a913960400191505060405180910390fd5b6122d7600160008473ffffffffffffffffffffffffffffffffffffffff1673ffffffffffffffffffffffffffffffffffffffff168152602001908152602001600020613952565b9050919050565b3373ffffffffffffffffffffffffffffffffffffffff166011600084815260200190815260200160002060009054906101000a900473ffffffffffffffffffffffffffffffffffffffff1673ffffffffffffffffffffffffffffffffffffffff1614612395576040517f08c379a0000000000000000000000000000000000000000000000000000000008152600401808060200182810382526031815260200180614b666031913960400191505060405180910390fd5b60016012600084815260200190815260200160002060006101000a81548160ff0219169083151502179055508060136000848152602001908152602001600020819055505050565b600d6020528060005260406000206000915090505481565b600a60009054906101000a900473ffffffffffffffffffffffffffffffffffffffff1681565b60003373ffffffffffffffffffffffffffffffffffffffff166017600084815260200190815260200160002060009054906101000a900473ffffffffffffffffffffffffffffffffffffffff1673ffffffffffffffffffffffffffffffffffffffff161461248857600080fd5b6000612494600b6136ec565b90506124a0600b6136fa565b8585600c600084815260200190815260200160002091906124c29291906147ab565b5087600d60008381526020019081526020016000208190555088600e60008381526020019081526020016000208190555086600f600083815260200190815260200160002060006101000a81548160ff02191690831515021790555060016018600083815260200190815260200160002060006101000a81548160ff021916908315150217905550336011600083815260200190815260200160002060006101000a81548173ffffffffffffffffffffffffffffffffffffffff021916908373ffffffffffffffffffffffffffffffffffffffff16021790555083601960008381526020019081526020016000206000018190555082601960008381526020019081526020016000206001018190555060006014600083815260200190815260200160002060006101000a81548160ff021916908315150217905550600060156000838152602001908152602001600020819055506126213382613710565b60006017600085815260200190815260200160002060006101000a81548173ffffffffffffffffffffffffffffffffffffffff021916908373ffffffffffffffffffffffffffffffffffffffff16021790555080915050979650505050505050565b606060078054600181600116156101000203166002900480601f01602080910402602001604051908101604052809291908181526020018280546001816001161561010002031660029004801561271b5780601f106126f05761010080835404028352916020019161271b565b820191906000526020600020905b8154815290600101906020018083116126fe57829003601f168201915b5050505050905090565b60003373ffffffffffffffffffffffffffffffffffffffff1661274784612130565b73ffffffffffffffffffffffffffffffffffffffff161461276757600080fd5b81601560008581526020019081526020016000208190555060016014600085815260200190815260200160002060006101000a81548160ff02191690831515021790555082905092915050565b6127bc613284565b73ffffffffffffffffffffffffffffffffffffffff168273ffffffffffffffffffffffffffffffffffffffff16141561285d576040517f08c379a00000000000000000000000000000000000000000000000000000000081526004018080602001828103825260198152602001807f4552433732313a20617070726f766520746f2063616c6c65720000000000000081525060200191505060405180910390fd5b806005600061286a613284565b73ffffffffffffffffffffffffffffffffffffffff1673ffffffffffffffffffffffffffffffffffffffff16815260200190815260200160002060008473ffffffffffffffffffffffffffffffffffffffff1673ffffffffffffffffffffffffffffffffffffffff16815260200190815260200160002060006101000a81548160ff0219169083151502179055508173ffffffffffffffffffffffffffffffffffffffff16612917613284565b73ffffffffffffffffffffffffffffffffffffffff167f17307eab39ab6107e8899845ad3d59bd9653f200f220920489ca2b5937696c3183604051808215151515815260200191505060405180910390a35050565b60156020528060005260406000206000915090505481565b600f6020528060005260406000206000915054906101000a900460ff1681565b60606000806000600c6000868152602001908152602001600020600f600087815260200190815260200160002060009054906101000a900460ff16600d600088815260200190815260200160002054600e600089815260200190815260200160002054838054600181600116156101000203166002900480601f016020809104026020016040519081016040528092919081815260200182805460018160011615610100020316600290048015612a9c5780601f10612a7157610100808354040283529160200191612a9c565b820191906000526020600020905b815481529060010190602001808311612a7f57829003601f168201915b5050505050935093509350935093509193509193565b600c6020528060005260406000206000915090508054600181600116156101000203166002900480601f016020809104026020016040519081016040528092919081815260200182805460018160011615610100020316600290048015612b5a5780601f10612b2f57610100808354040283529160200191612b5a565b820191906000526020600020905b815481529060010190602001808311612b3d57829003601f168201915b505050505081565b612b73612b6d613284565b8361359d565b612bc8576040517f08c379a0000000000000000000000000000000000000000000000000000000008152600401808060200182810382526031815260200180614b356031913960400191505060405180910390fd5b612bd484848484613967565b50505050565b60116020528060005260406000206000915054906101000a900473ffffffffffffffffffffffffffffffffffffffff1681565b60006012600083815260200190815260200160002060009054906101000a900460ff169050919050565b6000601060008373ffffffffffffffffffffffffffffffffffffffff1673ffffffffffffffffffffffffffffffffffffffff16815260200190815260200160002060009054906101000a900460ff169050919050565b6060612c9882613267565b612ced576040517f08c379a000000000000000000000000000000000000000000000000000000000815260040180806020018281038252602f815260200180614ae5602f913960400191505060405180910390fd5b6060600860008481526020019081526020016000208054600181600116156101000203166002900480601f016020809104026020016040519081016040528092919081815260200182805460018160011615610100020316600290048015612d965780601f10612d6b57610100808354040283529160200191612d96565b820191906000526020600020905b815481529060010190602001808311612d7957829003601f168201915b505050505090506060612da7612167565b9050600081511415612dbd578192505050612f59565b600082511115612e8e5780826040516020018083805190602001908083835b60208310612dff5780518252602082019150602081019050602083039250612ddc565b6001836020036101000a03801982511681845116808217855250505050505090500182805190602001908083835b60208310612e505780518252602082019150602081019050602083039250612e2d565b6001836020036101000a0380198251168184511680821785525050505050509050019250505060405160208183030381529060405292505050612f59565b80612e98856139d9565b6040516020018083805190602001908083835b60208310612ece5780518252602082019150602081019050602083039250612eab565b6001836020036101000a03801982511681845116808217855250505050505090500182805190602001908083835b60208310612f1f5780518252602082019150602081019050602083039250612efc565b6001836020036101000a03801982511681845116808217855250505050505090500192505050604051602081830303815290604052925050505b919050565b60176020528060005260406000206000915054906101000a900473ffffffffffffffffffffffffffffffffffffffff1681565b6000600560008473ffffffffffffffffffffffffffffffffffffffff1673ffffffffffffffffffffffffffffffffffffffff16815260200190815260200160002060008373ffffffffffffffffffffffffffffffffffffffff1673ffffffffffffffffffffffffffffffffffffffff16815260200190815260200160002060009054906101000a900460ff16905092915050565b3373ffffffffffffffffffffffffffffffffffffffff166011600083815260200190815260200160002060009054906101000a900473ffffffffffffffffffffffffffffffffffffffff1673ffffffffffffffffffffffffffffffffffffffff16146130f9576040517f08c379a000000000000000000000000000000000000000000000000000000000815260040180806020018281038252600f8152602001807f4e6f7420796f757220616e696d616c000000000000000000000000000000000081525060200191505060405180910390fd5b60006018600083815260200190815260200160002060006101000a81548160ff02191690831515021790555060405180602001604052806000815250600c6000838152602001908152602001600020908051906020019061315b92919061482b565b506000600d6000838152602001908152602001600020819055506000600e6000838152602001908152602001600020819055506000600f600083815260200190815260200160002060006101000a81548160ff02191690831515021790555060006014600083815260200190815260200160002060006101000a81548160ff0219169083151502179055506131ef81613b09565b50565b601560008281526020019081526020016000205434101561321257600080fd5b336017600083815260200190815260200160002060006101000a81548173ffffffffffffffffffffffffffffffffffffffff021916908373ffffffffffffffffffffffffffffffffffffffff16021790555050565b600061327d826002613c4390919063ffffffff16565b9050919050565b600033905090565b816004600083815260200190815260200160002060006101000a81548173ffffffffffffffffffffffffffffffffffffffff021916908373ffffffffffffffffffffffffffffffffffffffff160217905550808273ffffffffffffffffffffffffffffffffffffffff166132ff83612130565b73ffffffffffffffffffffffffffffffffffffffff167f8c5be1e5ebec7d5bd14f71427d1e84f3dd0314c0f7b2291e5b200ac8c7c3b92560405160405180910390a45050565b600061335382600001613c5d565b9050919050565b8273ffffffffffffffffffffffffffffffffffffffff1661337a82612130565b73ffffffffffffffffffffffffffffffffffffffff16146133e6576040517f08c379a0000000000000000000000000000000000000000000000000000000008152600401808060200182810382526029815260200180614abc6029913960400191505060405180910390fd5b600073ffffffffffffffffffffffffffffffffffffffff168273ffffffffffffffffffffffffffffffffffffffff16141561346c576040517f08c379a000000000000000000000000000000000000000000000000000000000815260040180806020018281038252602481526020018061496d6024913960400191505060405180910390fd5b613477838383613c6e565b61348260008261328c565b6134d381600160008673ffffffffffffffffffffffffffffffffffffffff1673ffffffffffffffffffffffffffffffffffffffff168152602001908152602001600020613c7390919063ffffffff16565b5061352581600160008573ffffffffffffffffffffffffffffffffffffffff1673ffffffffffffffffffffffffffffffffffffffff168152602001908152602001600020613c8d90919063ffffffff16565b5061353c81836002613ca79092919063ffffffff16565b50808273ffffffffffffffffffffffffffffffffffffffff168473ffffffffffffffffffffffffffffffffffffffff167fddf252ad1be2c89b69c2b068fc378daa952ba7f163c4a11628f55a4df523b3ef60405160405180910390a4505050565b60006135a882613267565b6135fd576040517f08c379a000000000000000000000000000000000000000000000000000000000815260040180806020018281038252602c8152602001806149b7602c913960400191505060405180910390fd5b600061360883612130565b90508073ffffffffffffffffffffffffffffffffffffffff168473ffffffffffffffffffffffffffffffffffffffff16148061367757508373ffffffffffffffffffffffffffffffffffffffff1661365f84611879565b73ffffffffffffffffffffffffffffffffffffffff16145b8061368857506136878185612f91565b5b91505092915050565b60006136e482600160008673ffffffffffffffffffffffffffffffffffffffff1673ffffffffffffffffffffffffffffffffffffffff168152602001908152602001600020613cdc90919063ffffffff16565b905092915050565b600081600001549050919050565b6001816000016000828254019250508190555050565b600073ffffffffffffffffffffffffffffffffffffffff168273ffffffffffffffffffffffffffffffffffffffff1614156137b3576040517f08c379a00000000000000000000000000000000000000000000000000000000081526004018080602001828103825260208152602001807f4552433732313a206d696e7420746f20746865207a65726f206164647265737381525060200191505060405180910390fd5b6137bc81613267565b1561382f576040517f08c379a000000000000000000000000000000000000000000000000000000000815260040180806020018281038252601c8152602001807f4552433732313a20746f6b656e20616c7265616479206d696e7465640000000081525060200191505060405180910390fd5b61383b60008383613c6e565b61388c81600160008573ffffffffffffffffffffffffffffffffffffffff1673ffffffffffffffffffffffffffffffffffffffff168152602001908152602001600020613c8d90919063ffffffff16565b506138a381836002613ca79092919063ffffffff16565b50808273ffffffffffffffffffffffffffffffffffffffff16600073ffffffffffffffffffffffffffffffffffffffff167fddf252ad1be2c89b69c2b068fc378daa952ba7f163c4a11628f55a4df523b3ef60405160405180910390a45050565b6000806000806139178660000186613cf6565b915091508160001c8160001c8090509350935050509250929050565b6000613946846000018460001b84613d8f565b60001c90509392505050565b600061396082600001613e85565b9050919050565b61397284848461335a565b61397e84848484613e96565b6139d3576040517f08c379a000000000000000000000000000000000000000000000000000000000815260040180806020018281038252603281526020018061493b6032913960400191505060405180910390fd5b50505050565b60606000821415613a21576040518060400160405280600181526020017f30000000000000000000000000000000000000000000000000000000000000008152509050613b04565b600082905060005b60008214613a4b578080600101915050600a8281613a4357fe5b049150613a29565b6060816040519080825280601f01601f191660200182016040528015613a805781602001600182028038833980820191505090505b50905060006001830390508593505b60008414613afc57600a8481613aa157fe5b0660300160f81b82828060019003935081518110613abb57fe5b60200101907effffffffffffffffffffffffffffffffffffffffffffffffffffffffffffff1916908160001a905350600a8481613af457fe5b049350613a8f565b819450505050505b919050565b6000613b1482612130565b9050613b2281600084613c6e565b613b2d60008361328c565b60006008600084815260200190815260200160002080546001816001161561010002031660029004905014613b7c57600860008381526020019081526020016000206000613b7b91906148ab565b5b613bcd82600160008473ffffffffffffffffffffffffffffffffffffffff1673ffffffffffffffffffffffffffffffffffffffff168152602001908152602001600020613c7390919063ffffffff16565b50613be28260026140db90919063ffffffff16565b5081600073ffffffffffffffffffffffffffffffffffffffff168273ffffffffffffffffffffffffffffffffffffffff167fddf252ad1be2c89b69c2b068fc378daa952ba7f163c4a11628f55a4df523b3ef60405160405180910390a45050565b6000613c55836000018360001b6140f5565b905092915050565b600081600001805490509050919050565b505050565b6000613c85836000018360001b614118565b905092915050565b6000613c9f836000018360001b614200565b905092915050565b6000613cd3846000018460001b8473ffffffffffffffffffffffffffffffffffffffff1660001b614270565b90509392505050565b6000613ceb836000018361434c565b60001c905092915050565b60008082846000018054905011613d58576040517f08c379a0000000000000000000000000000000000000000000000000000000008152600401808060200182810382526022815260200180614a6e6022913960400191505060405180910390fd5b6000846000018481548110613d6957fe5b906000526020600020906002020190508060000154816001015492509250509250929050565b60008084600101600085815260200190815260200160002054905060008114158390613e56576040517f08c379a00000000000000000000000000000000000000000000000000000000081526004018080602001828103825283818151815260200191508051906020019080838360005b83811015613e1b578082015181840152602081019050613e00565b50505050905090810190601f168015613e485780820380516001836020036101000a031916815260200191505b509250505060405180910390fd5b50846000016001820381548110613e6957fe5b9060005260206000209060020201600101549150509392505050565b600081600001805490509050919050565b6000613eb78473ffffffffffffffffffffffffffffffffffffffff166143cf565b613ec457600190506140d3565b606061405a63150b7a0260e01b613ed9613284565b888787604051602401808573ffffffffffffffffffffffffffffffffffffffff1673ffffffffffffffffffffffffffffffffffffffff1681526020018473ffffffffffffffffffffffffffffffffffffffff1673ffffffffffffffffffffffffffffffffffffffff16815260200183815260200180602001828103825283818151815260200191508051906020019080838360005b83811015613f89578082015181840152602081019050613f6e565b50505050905090810190601f168015613fb65780820380516001836020036101000a031916815260200191505b5095505050505050604051602081830303815290604052907bffffffffffffffffffffffffffffffffffffffffffffffffffffffff19166020820180517bffffffffffffffffffffffffffffffffffffffffffffffffffffffff838183161783525050505060405180606001604052806032815260200161493b603291398773ffffffffffffffffffffffffffffffffffffffff166143e29092919063ffffffff16565b9050600081806020019051602081101561407357600080fd5b8101908080519060200190929190505050905063150b7a0260e01b7bffffffffffffffffffffffffffffffffffffffffffffffffffffffff1916817bffffffffffffffffffffffffffffffffffffffffffffffffffffffff191614925050505b949350505050565b60006140ed836000018360001b6143fa565b905092915050565b600080836001016000848152602001908152602001600020541415905092915050565b600080836001016000848152602001908152602001600020549050600081146141f4576000600182039050600060018660000180549050039050600086600001828154811061416357fe5b906000526020600020015490508087600001848154811061418057fe5b90600052602060002001819055506001830187600101600083815260200190815260200160002081905550866000018054806141b857fe5b600190038181906000526020600020016000905590558660010160008781526020019081526020016000206000905560019450505050506141fa565b60009150505b92915050565b600061420c8383614513565b61426557826000018290806001815401808255809150506001900390600052602060002001600090919091909150558260000180549050836001016000848152602001908152602001600020819055506001905061426a565b600090505b92915050565b600080846001016000858152602001908152602001600020549050600081141561431757846000016040518060400160405280868152602001858152509080600181540180825580915050600190039060005260206000209060020201600090919091909150600082015181600001556020820151816001015550508460000180549050856001016000868152602001908152602001600020819055506001915050614345565b8285600001600183038154811061432a57fe5b90600052602060002090600202016001018190555060009150505b9392505050565b6000818360000180549050116143ad576040517f08c379a00000000000000000000000000000000000000000000000000000000081526004018080602001828103825260228152602001806149196022913960400191505060405180910390fd5b8260000182815481106143bc57fe5b9060005260206000200154905092915050565b600080823b905060008111915050919050565b60606143f18484600085614536565b90509392505050565b60008083600101600084815260200190815260200160002054905060008114614507576000600182039050600060018660000180549050039050600086600001828154811061444557fe5b906000526020600020906002020190508087600001848154811061446557fe5b90600052602060002090600202016000820154816000015560018201548160010155905050600183018760010160008360000154815260200190815260200160002081905550866000018054806144b857fe5b600190038181906000526020600020906002020160008082016000905560018201600090555050905586600101600087815260200190815260200160002060009055600194505050505061450d565b60009150505b92915050565b600080836001016000848152602001908152602001600020541415905092915050565b606082471015614591576040517f08c379a00000000000000000000000000000000000000000000000000000000081526004018080602001828103825260268152602001806149916026913960400191505060405180910390fd5b61459a856143cf565b61460c576040517f08c379a000000000000000000000000000000000000000000000000000000000815260040180806020018281038252601d8152602001807f416464726573733a2063616c6c20746f206e6f6e2d636f6e747261637400000081525060200191505060405180910390fd5b600060608673ffffffffffffffffffffffffffffffffffffffff1685876040518082805190602001908083835b6020831061465c5780518252602082019150602081019050602083039250614639565b6001836020036101000a03801982511681845116808217855250505050505090500191505060006040518083038185875af1925050503d80600081146146be576040519150601f19603f3d011682016040523d82523d6000602084013e6146c3565b606091505b50915091506146d38282866146df565b92505050949350505050565b606083156146ef578290506147a4565b6000835111156147025782518084602001fd5b816040517f08c379a00000000000000000000000000000000000000000000000000000000081526004018080602001828103825283818151815260200191508051906020019080838360005b8381101561476957808201518184015260208101905061474e565b50505050905090810190601f1680156147965780820380516001836020036101000a031916815260200191505b509250505060405180910390fd5b9392505050565b828054600181600116156101000203166002900490600052602060002090601f016020900481019282601f106147ec57803560ff191683800117855561481a565b8280016001018555821561481a579182015b828111156148195782358255916020019190600101906147fe565b5b50905061482791906148f3565b5090565b828054600181600116156101000203166002900490600052602060002090601f016020900481019282601f1061486c57805160ff191683800117855561489a565b8280016001018555821561489a579182015b8281111561489957825182559160200191906001019061487e565b5b5090506148a791906148f3565b5090565b50805460018160011615610100020316600290046000825580601f106148d157506148f0565b601f0160209004906000526020600020908101906148ef91906148f3565b5b50565b61491591905b808211156149115760008160009055506001016148f9565b5090565b9056fe456e756d657261626c655365743a20696e646578206f7574206f6620626f756e64734552433732313a207472616e7366657220746f206e6f6e20455243373231526563656976657220696d706c656d656e7465724552433732313a207472616e7366657220746f20746865207a65726f2061646472657373416464726573733a20696e73756666696369656e742062616c616e636520666f722063616c6c4552433732313a206f70657261746f7220717565727920666f72206e6f6e6578697374656e7420746f6b656e4552433732313a20617070726f76652063616c6c6572206973206e6f74206f776e6572206e6f7220617070726f76656420666f7220616c6c4552433732313a2062616c616e636520717565727920666f7220746865207a65726f20616464726573734552433732313a206f776e657220717565727920666f72206e6f6e6578697374656e7420746f6b656e456e756d657261626c654d61703a20696e646578206f7574206f6620626f756e64734552433732313a20617070726f76656420717565727920666f72206e6f6e6578697374656e7420746f6b656e4552433732313a207472616e73666572206f6620746f6b656e2074686174206973206e6f74206f776e4552433732314d657461646174613a2055524920717565727920666f72206e6f6e6578697374656e7420746f6b656e4552433732313a20617070726f76616c20746f2063757272656e74206f776e65724552433732313a207472616e736665722063616c6c6572206973206e6f74206f776e6572206e6f7220617070726f766564796f752063616e206e6f74206f6666657220666f722073616c65206120616e696d616c20796f7520646f6e2774206f776ea264697066735822122005fe83f5a6c89a70db88fd0d68fb2b4a62ddedd995cc5f416be968cc08ada0bc64736f6c63430006020033",
  "source": "pragma solidity ^0.6.2;\r\n\r\nimport \"@openzeppelin/contracts/token/ERC721/ERC721.sol\";\r\nimport \"@openzeppelin/contracts/utils/Counters.sol\";\r\n\r\nimport \"./IExerciceSolution.sol\";\r\n\r\ncontract ERC721TD is ERC721, IExerciceSolution {\r\n    using Counters for Counters.Counter;\r\n    address public owner;\r\n    Counters.Counter private _tokenIdCounter;\r\n\r\n    struct Parents{\r\n        uint256 idParents1;\r\n        uint256 idParents2;\r\n    }\r\n\r\n\r\n    mapping(uint256=> string) public idName;\r\n    mapping(uint256=> uint256) public idLegs;\r\n    mapping(uint256=> uint256) public idSex;\r\n    mapping(uint256=> bool) public idWings;\r\n    mapping(address=>bool) public breederList;\r\n    mapping(uint256=>address) public idToOwner;\r\n    mapping(uint256=>bool)public idForSale;\r\n    mapping(uint256=>uint256)public idPrice;\r\n    mapping(uint256=>bool)public idReproduce;\r\n    mapping(uint256=>uint256)public idReproducePrice;\r\n\r\n    mapping(address=>bool) public breederlist;\r\n    mapping(uint256=>address) public idAuthorizedBreeder;\r\n    mapping(uint256=>bool) public idAlive;\r\n\r\n    mapping(uint256=>Parents) public idParents;\r\n\r\n    \r\n    constructor() public ERC721(\"Krkmu\", \"KRK\") {\r\n        owner=msg.sender;\r\n        _tokenIdCounter.increment();\r\n        uint256 tokenId = _tokenIdCounter.current();\r\n        _tokenIdCounter.increment();\r\n        ERC721._mint(0x0E4F5184E6f87b5F959aeE5a09a2797e8B1b20E5,tokenId);\r\n        breederList[address(0x0E4F5184E6f87b5F959aeE5a09a2797e8B1b20E5)]=true;\r\n        idName[tokenId]= \"jGVCEY3tnQQx-z_\";\r\n        idLegs[tokenId]=3;\r\n        idSex[tokenId]=1;\r\n        idWings[tokenId]=true;\r\n        idAlive[tokenId]=true;\r\n        idToOwner[tokenId]=address(0x0E4F5184E6f87b5F959aeE5a09a2797e8B1b20E5);\r\n        idForSale[tokenId]=false;\r\n        idPrice[tokenId]=0;\r\n        idReproduce[tokenId]=false;\r\n        idReproducePrice[tokenId]=0;\r\n\r\n        tokenId = _tokenIdCounter.current();\r\n        ERC721._mint(msg.sender,tokenId);\r\n        idForSale[tokenId]=true;\r\n        idPrice[tokenId]=0.0001 ether;\r\n        idToOwner[tokenId]=msg.sender;\r\n        idReproduce[tokenId]=true;\r\n        idReproducePrice[tokenId]=0.0001 ether;\r\n        breederList[msg.sender]=true;\r\n        _tokenIdCounter.increment();\r\n    //P1\r\n        tokenId = _tokenIdCounter.current();\r\n        ERC721._mint(msg.sender,tokenId);\r\n        idForSale[tokenId]=true;\r\n        idPrice[tokenId]=0.0001 ether;\r\n        idToOwner[tokenId]=msg.sender;\r\n        idReproduce[tokenId]=false;\r\n        idReproducePrice[tokenId]=0;\r\n        _tokenIdCounter.increment();\r\n    //P2\r\n        tokenId = _tokenIdCounter.current();\r\n        ERC721._mint(msg.sender,tokenId);\r\n        idForSale[tokenId]=true;\r\n        idPrice[tokenId]=0.0001 ether;\r\n        idToOwner[tokenId]=msg.sender;\r\n        idReproduce[tokenId]=false;\r\n        idReproducePrice[tokenId]=0;\r\n        _tokenIdCounter.increment();\r\n        \r\n    }\r\n\r\n    modifier onlyOwner(){\r\n        require(msg.sender==owner);\r\n        _;\r\n    }\r\n\r\n    function safeMint(address to) public {\r\n        uint256 tokenId = _tokenIdCounter.current();\r\n        _tokenIdCounter.increment();\r\n        _mint(to, tokenId);\r\n    }\r\n\r\n    // Breeding function\r\n\tfunction isBreeder(address account) external override returns (bool){\r\n        return breederList[account];\r\n    }\r\n\r\n\tfunction registrationPrice() external override returns (uint256){\r\n        return 0;\r\n    }\r\n\r\n\tfunction registerMeAsBreeder() external override payable{\r\n        require(!breederList[msg.sender]);\r\n        breederList[msg.sender]=true;\r\n    }\r\n\r\n\tfunction declareAnimal(uint sex, uint legs, bool wings, string calldata name) external override returns (uint256){\r\n        uint256 tokenId = _tokenIdCounter.current();\r\n        _tokenIdCounter.increment();\r\n        idName[tokenId]= name;\r\n        idLegs[tokenId]=legs;\r\n        idSex[tokenId]=sex;\r\n        idWings[tokenId]=wings;\r\n        idAlive[tokenId]=true;\r\n        idToOwner[tokenId]=msg.sender;\r\n        idReproducePrice[tokenId]=0;\r\n        idReproduce[tokenId]=false;\r\n        ERC721._mint(msg.sender,tokenId);\r\n        return tokenId;\r\n    }\r\n\r\n\tfunction getAnimalCharacteristics(uint animalNumber) external override returns (string memory _name, bool _wings, uint _legs, uint _sex){\r\n        return (idName[animalNumber],idWings[animalNumber],idLegs[animalNumber],idSex[animalNumber]);\r\n    }\r\n\r\n\tfunction declareDeadAnimal(uint animalNumber) external override{\r\n        require(idToOwner[animalNumber]==msg.sender,\"Not your animal\");\r\n        idAlive[animalNumber]=false;\r\n        idName[animalNumber]= \"\";\r\n        idLegs[animalNumber]=0;\r\n        idSex[animalNumber]=0;\r\n        idWings[animalNumber]=false;\r\n        idReproduce[animalNumber]=false;\r\n        _burn(animalNumber);\r\n    }\r\n\r\n\tfunction tokenOfOwnerByIndex(address owner, uint256 index) public override(IExerciceSolution,ERC721) view returns (uint256){\r\n        require(balanceOf(owner)!=0,\"you don't have token\");\r\n        return ERC721.tokenOfOwnerByIndex(owner,index);\r\n    }\r\n\r\n\t// Selling functions\r\n\tfunction isAnimalForSale(uint animalNumber) external view override returns (bool){\r\n        return idForSale[animalNumber];\r\n    }\r\n\r\n\tfunction animalPrice(uint animalNumber) external view override returns (uint256){\r\n        return idPrice[animalNumber];\r\n    }\r\n\r\n\tfunction buyAnimal(uint animalNumber) external payable override{\r\n        require(idForSale[animalNumber],\"This animal can not be buy\");\r\n        require(msg.value>=idPrice[animalNumber],\"not enought money bro\");\r\n        _transfer(idToOwner[animalNumber], msg.sender, animalNumber);\r\n    }\r\n\r\n\tfunction offerForSale(uint animalNumber, uint price) external override{\r\n        require(idToOwner[animalNumber]==msg.sender,\"you can not offer for sale a animal you don't own\");\r\n        idForSale[animalNumber]=true;\r\n        idPrice[animalNumber]=price;\r\n    }\r\n\r\n\t// Reproduction functions\r\n\r\n\tfunction declareAnimalWithParents(uint sex, uint legs, bool wings, string calldata name, uint parent1, uint parent2) external override returns (uint256){\r\n        require(idAuthorizedBreeder[parent2]==msg.sender);\r\n        uint256 tokenId = _tokenIdCounter.current();\r\n        _tokenIdCounter.increment();\r\n        idName[tokenId]= name;\r\n        idLegs[tokenId]=legs;\r\n        idSex[tokenId]=sex;\r\n        idWings[tokenId]=wings;\r\n        idAlive[tokenId]=true;\r\n        idToOwner[tokenId]=msg.sender;\r\n        idParents[tokenId].idParents1=parent1;\r\n        idParents[tokenId].idParents2=parent2;\r\n        idReproduce[tokenId]=false;\r\n        idReproducePrice[tokenId]=0;\r\n        ERC721._mint(msg.sender,tokenId);\r\n        idAuthorizedBreeder[parent2]=address(0);\r\n        return tokenId;\r\n    }\r\n\r\n\tfunction getParents(uint animalNumber) external override returns (uint256, uint256){\r\n        return (idParents[animalNumber].idParents1,idParents[animalNumber].idParents2);\r\n    }\r\n\r\n\tfunction canReproduce(uint animalNumber) external override returns (bool){\r\n        return idReproduce[animalNumber];\r\n    }\r\n\r\n\tfunction reproductionPrice(uint animalNumber) external override view returns (uint256){\r\n        return idReproducePrice[animalNumber];\r\n    }\r\n\r\n\tfunction offerForReproduction(uint animalNumber, uint priceOfReproduction) external override returns (uint256){\r\n        require(ownerOf(animalNumber)==msg.sender);\r\n        idReproducePrice[animalNumber]=priceOfReproduction;\r\n        idReproduce[animalNumber]=true;\r\n        return animalNumber;\r\n    }\r\n\r\n\tfunction authorizedBreederToReproduce(uint animalNumber) external override returns (address){\r\n        return idAuthorizedBreeder[animalNumber];\r\n    }\r\n\r\n\tfunction payForReproduction(uint animalNumber) external override payable{\r\n        require(msg.value>=idReproducePrice[animalNumber]);\r\n        idAuthorizedBreeder[animalNumber]=msg.sender;\r\n    }\r\n\r\n\r\n}",
  "sourcePath": "C:\\Users\\MAXD0\\Desktop\\ESILV\\A4\\blockchain programming\\TP_ERC721\\erc721-101\\contracts\\ERC721TD.sol",
  "compiler": {
    "name": "solc",
    "version": "0.6.2+commit.bacdbe57.Emscripten.clang"
  },
  "schemaVersion": "3.4.10",
  "updatedAt": "2022-11-26T00:42:25.669Z",
  "networkType": "ethereum",
  "devdoc": {
    "methods": {
      "approve(address,uint256)": {
        "details": "See {IERC721-approve}."
      },
      "balanceOf(address)": {
        "details": "See {IERC721-balanceOf}."
      },
      "baseURI()": {
        "details": "Returns the base URI set via {_setBaseURI}. This will be automatically added as a prefix in {tokenURI} to each token's URI, or to the token ID if no specific URI is set for that token ID."
      },
      "getApproved(uint256)": {
        "details": "See {IERC721-getApproved}."
      },
      "isApprovedForAll(address,address)": {
        "details": "See {IERC721-isApprovedForAll}."
      },
      "name()": {
        "details": "See {IERC721Metadata-name}."
      },
      "ownerOf(uint256)": {
        "details": "See {IERC721-ownerOf}."
      },
      "safeTransferFrom(address,address,uint256)": {
        "details": "See {IERC721-safeTransferFrom}."
      },
      "safeTransferFrom(address,address,uint256,bytes)": {
        "details": "See {IERC721-safeTransferFrom}."
      },
      "setApprovalForAll(address,bool)": {
        "details": "See {IERC721-setApprovalForAll}."
      },
      "supportsInterface(bytes4)": {
        "details": "See {IERC165-supportsInterface}.     * Time complexity O(1), guaranteed to always use less than 30 000 gas."
      },
      "symbol()": {
        "details": "See {IERC721Metadata-symbol}."
      },
      "tokenByIndex(uint256)": {
        "details": "See {IERC721Enumerable-tokenByIndex}."
      },
      "tokenURI(uint256)": {
        "details": "See {IERC721Metadata-tokenURI}."
      },
      "totalSupply()": {
        "details": "See {IERC721Enumerable-totalSupply}."
      },
      "transferFrom(address,address,uint256)": {
        "details": "See {IERC721-transferFrom}."
      }
    }
  },
  "userdoc": {
    "methods": {}
  }
}